:020000040000FA
:060000006CEF0FF012008E
:020006001200E6
:060008007CEF0AF012007B
:02000E000300ED
:10001000441F0000A400000002000000341F000084
:100020008000000010000000321F0000A20000004D
:0400300002000000CA
:0C00340056EC05F0FB0EDBCFF3FFDB0603
:10004000F35000090AE0A4EC05F0FA0E0FEC06F0FC
:10005000F3E1151CF1E1010E01D0000E85EF05F072
:1000600056EC05F03B0EE12402E3E168E652E16E56
:10007000010EDB6A020EDB6AF90EDBCFF6FFFA0E29
:10008000DBCFF7FFFB0EDBCFF8FF0800F550DF6E8C
:10009000DF5002E1A9EF04F0250EDF5C02E09CEFE7
:1000A00004F0030EDB6A040EDB6A050EDB6A060E43
:1000B000DB6A070EDB6ABEEC04F02D0EDF5C0CE0A1
:1000C0002B0EDF5C09E0200EDF5C06E0230EDF5C18
:1000D00003E0300EDF5C1AE1DF50300A14E0130A4F
:1000E0000FE0030A0AE00B0A05E0060AE4E1030E4A
:1000F000DB80E1D7030EDB82DED7030EDB84DBD7A8
:10010000030EDB86D8D7030EDB88D5D72A0EDF5C3B
:100110001BE1BAEC04F008EC05F010E0030EDB8004
:1001200006680768130EDBCF0BF0140EDBCF0CF064
:100130005DEC08F0040E04C0DBFF03D0130EF1ECFD
:1001400004F0BEEC04F00BD0090EDB6A5FEC05F0A6
:1001500003E0D3EC05F0FAD7090EF1EC04F0030E3E
:10016000DBB0DB982E0EDF5C1BE1BEEC04F02A0E48
:10017000DF5C0BE1BAEC04F008EC05F003E1130ED0
:1001800043EC05F0BEEC04F00BD0090EDB6A5FEC2B
:1001900005F003E0D3EC05F0FAD7090E43EC05F0C7
:1001A000680EDF5C07E1BEEC04F0680EDF5C1DE169
:1001B000030E18D0740EDF5C17E07A0EDF5C14E0DB
:1001C000480EDF5C06E0540EDF5C03E05A0EDF5C95
:1001D00002E1020E07D06C0EDF5C03E06A0EDF5C0A
:1001E00004E1010E96EC05F0C9DBDF506E0A01E177
:1001F0007FD31E0A01E192D1200A01E18FD13F0A8B
:1002000001E149D11A0A01E146D10D0A01E143D1C8
:10021000200A01E140D13A0A01E13DD1200A01E181
:100220003AD1260A01E135D10D0A01E132D11A0A8B
:1002300001E1D9D0200A4AE0300A1FE0460A0EE068
:10024000250A01E083D3D950F90FE96EFF0EDA20B9
:10025000EA6E010EEE5E000EEE5AEE5AA4EC05F0C8
:10026000250EE66E95DB03E1151C01E169D3A0ECD8
:1002700005F001E26BD3DB2A69D3080EDB6A040EBA
:10028000DB50010806E2040EDB0468EC05F0DB50ED
:100290008BDB080EDB5009E0030EDB50010B05E1A0
:1002A00072DB01E04DD3080EDB6A64DBEFCFDFFFCA
:1002B00018EC06F003E1151C01E142D3A0EC05F0B7
:1002C00001E3DB2A60DB01E141D33AD3070EDB50C7
:1002D00002080FE1E4EC05F0030EABEC05F00E0EA6
:1002E000EECFDBFF0F0EEECFDBFF100EEECFDBFF0E
:1002F00020D0F70EDBCF17F0F80EDBCF18F0020E90
:10030000175E000E185AF70E17C0DBFFF80E18C064
:10031000DBFF17C0E9FF18C0EAFF9BEC05F0166A87
:100320000E0E14C0DBFF0F0E15C0DBFF100E16C043
:10033000DBFF0E0EDBCFE6FF0F0EDBCFE6FF100E6E
:10034000DBCFE6FFD1EC0EF0E552E552E552130E9D
:1003500005C0DBFF140E06C0DBFF060EDB5005E018
:10036000130EDFEC05F001E26ADB03EC06F002E2BB
:10037000130E37DBC6EC05F006E0040EDFEC05F0EB
:1003800002E2050E2EDB030EDBB005D0FCDA01E045
:10039000D7D2080EDB6A090EDB6A0E0EDBCFF6FF42
:1003A0000F0EDBCFF7FF100EDBCFF8FF0800F55084
:1003B000DF6EDF5014E009EC06F011E218EC06F0F5
:1003C00003E1151C01E1BCD2BBDB01E3DB2A090E12
:1003D000DB2AD9500E0FE96E000ECBDBE7D7D3DA5C
:1003E00001E1B4D2ADD2C6DA110EEECFDBFF120EB0
:1003F000EDCFDBFF110EDBCFE6FF120EDBCFE6FF0A
:10040000C3EC0EF0E552E552130EF3CFDBFF140EF2
:10041000F4CFDBFF060EDB5004E0130ED0DB01E26D
:100420000EDB03EC06F002E2130EDBDAAFDB05E0D5
:10043000040EC5DB02E2050ED4DA030EDBB005D0F4
:10044000A2DA01E07DD2080EDB6A090EDB6A110E2A
:10045000DBCFE9FF120EDBCFEAFFEFCFDFFFDF508C
:1004600014E0D7DB12E2E4DB03E1151C01E168D202
:1004700067DB01E3DB2A090EDB2A110EDB2ADBCF67
:10048000E9FF120EE8E3DB2AE6D77DDA01E15ED26E
:1004900057D2030EDB8E070EDB0410E195DB040E52
:1004A0005ADB0A0EEECFDBFF0B0EEECFDBFF0C0E9E
:1004B000EECFDBFF0D0EEECFDBFF6CD0070EDB5077
:1004C00003082CE1030EDBAE0DD0B2DA020E76DAB1
:1004D000EFCF14F0156A166A176A14AE39D0156892
:1004E000166835D0F70EDBCF15F0F80EDBCF16F01F
:1004F000020E155E000E165AF70E15C0DBFFF80E41
:1005000016C0DBFF15C0E9FF16C0EAFFEFCF14F0FD
:100510000A0E14C0DBFF0B0EDB6A38D0070EDB506F
:10052000020809E1030EDBAE04D059DB16AE10D091
:100530000ED055DB0DD0030EDBAE12D079DA020EF1
:100540003DDAF9DA166A176A15AE02D0166817682E
:10055000E2DA0C0E16C0DBFF0D0E17C0DBFF1AD05F
:10056000F70EDBCF16F0F80EDBCF17F0020E165E9B
:10057000000E175AF70E16C0DBFFF80E17C0DBFF90
:1005800016C0E9FF17C0EAFFD6DAC5DA0C0EDB6A3F
:100590000D0EDB6A060EDB5005E1010EF36E050E53
:1005A000F3CFDBFF150EDB6A160EDB6AD950370F6F
:1005B000146E000EDA20156E390E14C0DBFF3A0EF1
:1005C00015C0DBFF380EDB6A080EDB6A0A0EAEDAF6
:1005D000DF50780A12E0200A10E0280A0CE0200A16
:1005E0000AE03F0A06E00D0A02E0200A08E1020ED6
:1005F00005D0080E03D0080EDF26100E97DA030E82
:10060000DBBE02D0DB92DB94DB50800B24E08ADA85
:10061000D890030EEB50000A08E6000EEE5C000EC8
:10062000EE58000EEE58000EEE5815E213DA096887
:100630000A680B680C688BEC0EF00A0E00C0DBFF3A
:100640000B0E01C0DBFF0C0E02C0DBFF0D0E03C062
:10065000DBFF2D0E08D0030EDBA202D02B0E03D041
:10066000DBA408D0200EF36E170EF3CFDBFF150EC0
:10067000DB2A02D0170EDB6A050EDB5003E1B7D987
:1006800001E189D0100E146E1F0E156E000E166E4D
:10069000070EDBCF17F0186A196A1A6A17C009F03B
:1006A00018C00AF019C00BF01AC00CF0D3D9F6EC40
:1006B0000EF014500024F36E15500120F46E165005
:1006C0000220F86EF4CFF7FFF3CFF6FF0800090E13
:1006D000F5CFDBFF580EDF5C0FE1610EF36E090E04
:1006E0007BD90AE3200E146E090EDBCFE7FF14500E
:1006F000E75E090EE7CFDBFF070EDBCF14F0156ACC
:10070000166A176A0FDA14C009F015C00AF016C08D
:100710000BF017C00CF0EECF04F0EECF05F0EECFEB
:1007200006F0EFCF07F0F6EC0EF007C0EDFF06C0C5
:10073000EDFF05C0EDFF04C0EFFF390EDBCFE9FF91
:10074000DB063A0EDBCFEAFF01E2DB06090EDBCF68
:10075000EFFF150EDB2A4BD995E1030EDBA61DD06A
:100760006F0EDF5C06E1C1D918E3150EDB285BDAFA
:1007700014D0780EDF5C09E0580EDF5C06E0620EF4
:10078000DF5C03E0420EDF5C08E1020EF36E160E42
:10079000F3CFDBFF02D0150EDB6A030EDB50100B2C
:1007A0000EE0040EDBCF14F0050EDB50D88014549D
:1007B00006E2060EDB5003E1040EDB5034DA95D975
:1007C0000AE2050EDBCFE7FF150EDB50E75E050EF4
:1007D000E7CFDBFF02D0050EDB6A040EDBCF14F09F
:1007E000160E45D9D880145414E2160EDBCFE6FF5E
:1007F000150EDBCFE6FF040EDBCFE6FF050EDB5068
:10080000E552E75CE552D880E754E552D880E754DA
:100810005FD9030EDB50010B0BE1080EDB5008E043
:10082000B2D801E08DD0080EDB50BED8080EDB6ACE
:10083000170EDB5007E088D9170EF1D903E1151C1C
:1008400001E17ED0160EDB5016E07ED9300EE66E4A
:100850009FD802E1151C74E077D9DFCFE6FFCEEC1C
:100860000DF0E552E552E552F4CF15F00001F31C0E
:1008700002E1151C65E0050EDBCF14F0160EDB500F
:10088000D880145409E2050EDBCFE7FF160EDB50CB
:10089000E75E050EE7CFDBFF300EE66E050ECBD927
:1008A0004FE1390EDB2ADBCFE9FF3A0E01E3DB2A09
:1008B000DBCFEAFF090EEFCFDBFFDB500EE044D9C0
:1008C000090EADD902E1151C3BE0390EDB2ADBCF66
:1008D000E9FF3A0EEDE3DB2AEBD755D831E1160EEE
:1008E000DBCFE6FF080EC3D8E552E7245DD82ED053
:1008F000070EDB50030A1CE0010A14E0030A07E0BC
:100900007BD9DBCFEEFF020EDBCFEDFF1FD0F5D89A
:10091000196A17AE02D0186819682CD8BCD819C04B
:10092000EEFF14D0EAD817BE186824D8B4D80ED079
:1009300063D9DBCFEFFF0AD07BD905E1151C03E1BA
:10094000F368F46810D0FCD801E3DB2A79D945EFCD
:1009500000F0010EDBCF14F0020EDBCF15F014C057
:10096000F3FF15C0F4FF3B0EE15C02E2E16AE552E1
:10097000E16ECBD029D9020EABEF05F061D90800AA
:10098000F550DF6E1200200EE66E080E1BEF06F02B
:10099000CEEC0DF0E552E552E552F3CF14F0F4CF72
:1009A00015F00001F31C1200146E156AD950010FE6
:1009B0004DD91450EE261550ED221200185E000E8F
:1009C000195AF70E18C0DBFFF80E19C0DBFF18C06C
:1009D000E9FF19C0EAFF1200DBCFF4FFF350F45C2B
:1009E0001200DB50E76E040EE7CFDBFF12000A0EA9
:1009F000DBCF14F00B0EDBCF15F00C0EDBCF16F0B7
:100A00000D0EDBCF17F01450151016101710120032
:100A1000130EEECFDBFF140EEDCFDBFF130EDBCF9B
:100A200014F0140EDBCF15F00001800E1514120027
:100A3000F70EDBCF18F0F80EDBCF19F01200050E21
:100A4000DB50E66ED950130F01D9E552E750EE6E38
:100A5000ED6A12000A0EDBCF04F00B0EDBCF05F0BF
:100A60000C0EDBCF06F00D0EDBCF07F01200DBCF54
:100A7000E6FF150EDBCFE6FF050EDB50E552E7245F
:100A8000E552E7241200DB50CED8010EF36E060EBD
:100A9000F3CFDBFF1200EE50EFCFEAFFE96E16C096
:100AA000EEFF17C0EEFF18C0EEFF1200D9CFE6FF31
:100AB000DACFE6FFE1CFD9FFE2CFDAFF1200DFCFD6
:100AC000E6FFE66A3AEC0FF0E552E552F350120009
:100AD000E76E080EE7CFDBFF1200EECF14F0EECF8B
:100AE00015F0EFCF16F0176A1200050EDBCF14F0E9
:100AF000150EDB50D88014541200010EDBCF16F017
:100B0000020EDBCF17F0186A1200E552E5CFDAFFCC
:100B1000E7CFD9FF12000A0E14C0DBFF0B0E15C081
:100B2000DBFF1200D9500A0F26EF06F0F36E070E16
:100B3000F3CFDBFF1200EECF14F0EFCF15F0120071
:100B4000010EDB2A020E1200FC0EDBCFE6FFFD0ECB
:100B5000DBCFE6FF1200145E000E155AF70E14C02C
:100B6000DBFFF80E15C0DBFF14C0E9FF15C0EAFF7C
:100B70001200DA20EA6EEF2AEECFF6FF000EEF2227
:100B8000EECFF7FFEF22EECFF8FF1200040EDBCF1F
:100B9000E6FF130EDB50E552E75C9ADFDB5004DF23
:100BA000060EDB501200090EDB500A0DF350DF2455
:100BB000D00FE76E090EE7CFDBFFBEEF04F0DB508E
:100BC000F36E050EECEF04F0F70EDBCF14F0F80E29
:100BD000DBCF15F01200DFCFE6FFC8EF04F028DF0F
:100BE000030EECDE6DEF05F01AEC00F0E552E55275
:100BF000E552E55200091200BDDEEE50EFCFEAFFEC
:100C0000E96E010E1200130EDB50F36E040EECEFD2
:100C100004F0040EDB50F36E090EECEF04F0DBCFB2
:100C2000E6FFC8EF04F0E76E050EE7CFDBFF12002A
:100C30008BDFEBEF05F0DBCFE6FF86DFF4EF05F0AF
:100C4000D950F90FE96EFF0EB9EF05F0E96E000E0D
:060C5000DA20EA6E12003A
:0A0C56000F9E05D00F9E07AE02D0DE
:100C6000076C0F8E07C001F0006A136A126A860EC5
:100C7000026E036AF3EF07F00F9E08D00F9E07AED7
:100C800005D0066C071EE86A07220F8E07C001F028
:100C900006C000F0136A126A8E0E026E036AF3EF4A
:100CA00007F00F6A2FEC08F047EC08F00FB6D7EF0B
:100CB00007F00FA205D00FBAD7EF07F0DEEF07F06D
:100CC0000FBAEAEF07F00FA005D00FB8D7EF07F083
:100CD000EAEF07F00FB8DEEF07F0036A7F0E082493
:100CE000026EE86A03220D50025EE86A035A1A0E89
:100CF000106E086A126A136A006A016A0A50055E79
:100D00000B50065A0C50075A000E085A09E70A50B1
:100D100005260B5006220C500722000E082201D097
:100D2000128AD8900536063607360836D89012361D
:100D3000133600360136102EE1D707500610051085
:100D4000D8A4128AF3EF07F00F6A2FEC08F047ECF3
:100D500008F00FB6D7EF07F00FA205D00FB8D7EF06
:100D600007F0DEEF07F00FAA05D00FB0D7EF07F0BE
:100D7000DEEF07F00FB002D00FA802D0EAEF07F0C5
:100D8000036A0D500824026EE86A03227E0E025E9A
:100D9000E86A035A126A136A006A016A0C50070271
:100DA000F4CF01F0F3CF00F00B500702F3501326FD
:100DB000F4500022000E01220C500602F3501326BC
:100DC000F4500022000E01220A500702F3501226AE
:100DD000F4501322000E002201220B500602F350A1
:100DE0001226F4501322000E002201220C5005029C
:100DF000F3501226F4501322000E002201220A5052
:100E00000602F4501226000E1322002201220B507B
:100E10000502F4501226000E132200220122F3EFE5
:100E200007F00D7E0F6A2FEC08F047EC08F00FB6C4
:100E3000D7EF07F00FA20AD00FAA03D00FBED7EF4B
:100E400007F00FA4E3EF07F0E0EF07F00FAA05D0DB
:100E50000FACE3EF07F0E0EF07F00FA00AD00FA808
:100E600008D00FBE04D00FA402D0ECEF07F0F0EFD3
:100E700007F0126A036A0D50085C116E10E305C09A
:100E800013F006C000F007C001F008C010F00AC05F
:100E900005F00BC006F00CC007F00F3A09D00AC0ED
:100EA00013F00BC000F00CC001F00DC010F0116C7D
:100EB0000F9E0FBC0F8E10C002F00FB01FEF08F096
:100EC0001A0E11601FEF08F0026A086A0FA408D01A
:100ED000056C061E071E081EE86A06220722082265
:100EE0000FAC08D0136C001E011E021EE86A00221F
:100EF00001220222046A115207E008340732063246
:100F000005320432112EF9D705501326065000225F
:100F1000075001220850022204C012F00F9E02AEB8
:100F20000BD0126C131E001E011E021EE86A132253
:100F30000022012202220F8E02A006D0D8800132A8
:100F4000003213321232102A10C002F0F3EF07F011
:100F50000F6A2FEC08F00FB6B2EF07F00FA20ED019
:100F60000FB405D07F0E076EFF0E066E1FD0800EE9
:100F7000076E066A1BD0076A066A18D00FB0FBD747
:100F80008F0E0860EDD77E0E0864F5D78E0E085CD4
:100F900005E0D89007320632082AF8D70FA406D009
:100FA000066C071EE86A072207AEE5D712007F0E1F
:100FB000086EFF0E076E066E056E12007F0E0FBEE6
:100FC000FF0E086E02D07F0E086E800E076E066A56
:100FD000056AF3D70FAE04D0800E086E076AF7D704
:100FE000086A076AF4D70150001013101210F8E0D5
:100FF00003BEF0D701BE0CD002500310EBE0D89036
:1010000012361336003601360206D8A00306F2D790
:101010000350D4E10228D2E012AE11D07F0E121498
:1010200002E113A00CD0132AE86A0022012207E390
:10103000D880013200321332022A0228BFE0025067
:10104000C9E013C005F000C006F00134076E02309D
:10105000086E0732089E0FBE088EDDEF07F00736D8
:10106000083602E30F840F7E06E10F80086A076AE4
:10107000066A056A1200082803E0D88007321200C9
:10108000D890073202E10F8212000F8612000C3650
:101090000D3602E30F8C0F7E06E10F880D6A0C6A95
:1010A0000B6A0A6A12000D2803E0D8800C32120085
:1010B000D8900C32EAE10F8A120007C013F006C084
:1010C00012F006500B02F4CF05F0F3CF04F00750F6
:1010D0000C02F4CF07F0F3CF06F00B02F350052615
:1010E000F4500622E86A072212500C02F35005263B
:1010F000F4500622E86A07220CAE83EF08F0125083
:10110000065E1350075A13AE000C0B50065E0C50CF
:04111000075A000C6E
:0C111400800EC76E280EC66EC56A130E52
:10112000C86E1200D9CFE6FFE1CFD9FF1F0EC5145C
:10113000FDE1C750040BFAE1C580C5B0FED7FE0E35
:10114000DB50C96EC7B0FED7C5BCFED71F0EC51495
:10115000FDE1C750040BFAE1C584C5B4FED79E96E5
:10116000000EE552E7CFD9FF1200D9CFE6FFE1CF5D
:10117000D9FF060EE126040EDB6A0A0EF36E050E99
:10118000F3CFDBFFFE0EDBCFE6FF10EC0EF0E552F7
:10119000E76E040EE7CFDBFF050EDB06040EDB5027
:1011A0000EE0050EDBCF14F0000EE76E1418E8AE6B
:1011B00002D0143403D0E750D8801454E3E30A0E6D
:1011C000F36E050EF3CFDBFFFD0EDBCFE6FFFE0E69
:1011D000DBCFE6FF16EC0CF0E552E552020EF3CF42
:1011E000DBFF030EF4CFDBFF050EDB06030EDB5047
:1011F0000EE0050EDBCF14F0000EE76E1418E8AE1B
:1012000002D0143403D0E750D8801454DDE3030E29
:10121000DB5002E0DF6806D0020EDB50E76E010E05
:10122000E7CFDBFF0A0EF36E050EF3CFDBFFFD0EFB
:10123000DB28E66EFE0EDBCFE6FF16EC0CF0E55287
:10124000E552020EF3CFDBFF030EF4CFDBFF050EFA
:10125000DB06030EDB500EE0050EDBCF14F0000EB4
:10126000E76E1418E8AE02D0143403D0E750D880EB
:101270001454DDE3030EDB5003E0010EDB6803D002
:10128000020EDB50DF6EDECF14F0DDCF15F014C0A0
:10129000F3FF15C0F4FF060EE15C02E2E16AE552DD
:1012A000E16EE552E7CFD9FF1200D9CFE6FFE1CFDB
:1012B000D9FF020EE126DF6ADE520A0EDD6EFE0E57
:1012C000DBCFE6FF10EC0EF0E552DF6E010EDB0621
:1012D000DF500EE0010EDBCF14F0000EE76E1418A5
:1012E000E8AE02D0143403D0E750D8801454E7E3BA
:1012F000DE520A0EDD6EFD0EDBCFE6FFE66AFE0E65
:10130000DBCFE6FF35EC0DF0E552E552E552DF6E3E
:10131000010EDB06DF500EE0010EDBCF14F0000EF5
:10132000E76E1418E8AE02D0143403D0E750D8802A
:101330001454E1E3020EE15C02E2E16AE552E16E7F
:10134000E552E7CFD9FF1200D9CFE6FFE1CFD9FFB1
:10135000E652DF6A1F0EC514FDE1C750040BFAE127
:10136000C580C5B0FED7FE0EDB50C96EC7B0FED734
:10137000C5BCFED71F0EC514FDE1C750040BFAE132
:10138000DFCF14F0156A14BE1568FC0EDB50142470
:10139000E96EFD0EDB501520EA6EEF50C96EC7B046
:1013A000FED7C5BCFED7DF50DF2A146E156A14BE07
:1013B0001568FC0EDB501424E96EFD0EDB50152081
:1013C000EA6EEF50D7E11F0EC514FDE1C750040BC4
:1013D000FAE1C584C5B4FED79E96000EE552E552EB
:1013E000E7CFD9FF1200D9CFE6FFE1CFD9FFE65210
:1013F000DF6A1F0EC514FDE1C750040BFAE1C5807A
:10140000C5B0FED7FE0EDB28C96EC7B0FED7C5BC7F
:10141000FED71F0EC514FDE1C750040BFAE1C586C7
:10142000C7A0FED7DFCF14F0156A14BE1568FC0EF6
:10143000DB501424E96EFD0EDB501520EA6EC9CF97
:10144000EFFFC95002E0C59A01D0C58AC588C5B86A
:10145000FED7DF50DF2A146E156A14BE1568FC0E25
:10146000DB501424E96EFD0EDB501520EA6EEF50C0
:10147000D0E11F0EC514FDE1C750040BFAE1C5848D
:10148000C5B4FED79E96000EE552E552E7CFD9FFD0
:101490001200D9CFE6FFE1CFD9FFE652DF6A1F0E77
:1014A000C514FDE1C750040BFAE1C580C5B0FED7F5
:1014B000FE0EDB50C96EC7B0FED7C5BCFED71F0EEF
:1014C000C514FDE1C750040BFAE1FD0EDB50C96EF7
:1014D000C7B0FED7C5BCFED71F0EC514FDE1C7506F
:1014E000040BFAE1C584C5B4FED79E96DF50E552E1
:0814F000E552E7CFD9FF12001D
:0814F800DACFE4FFE2CFDAFFD6
:10150000E9CFE4FFEACFE4FFF6CFE4FFF7CFE4FF53
:10151000F5CFE4FFF3CFE4FFF4CFE4FFFACFE4FF2D
:1015200000EE00F0140EE80403E3EECFE4FFFBD777
:1015300000EE14F00C0EE80403E3EECFE4FFFBD75B
:10154000E652F2A222D09F0EE66E000EE66EA20ECA
:10155000E66EF3EC09F0E552E552E552330E000178
:10156000A05D11E1960E000183AF02D0D89003D0A8
:10157000825D000E835907E3010E806FBE6E020E7E
:10158000BB6E808C808EF2927DD0F2A47BD09ED8F0
:10159000140E00018F5D26E18F6B80C020F0216A60
:1015A00020BE216820C0E6FF21C0E6FF8151E66E23
:1015B000E66A8BC0E6FF8CC0E6FF89C0E6FF8AC002
:1015C000E6FF340E226E1E0E236E246A22C0E6FF52
:1015D000E66E24C0E6FF82EC0DF0256E0B0EE15E98
:1015E000255001D08F2B020EE66EE10EE66EB5ECB3
:1015F00008F0E552E552F3CF82F0F4CF83F0510EBC
:10160000E66EE00EE66E55EC09F0E552E55200019B
:10161000800511E1280E83AF02D0D89003D0825DFF
:10162000000E835908E2020E806F00019E6B030ECC
:10163000BE6E040E0FD0020E805D12E1320E00016C
:101640009E5D0CE10001030E806F00019E6B050E94
:10165000BE6E060EBB6E809C809E0FD09E2B0DD062
:10166000030E805D0AE1640E00019E5D05E1BE6A25
:10167000BB6A0001806B01D09E2B3C0ED76EAF0E73
:10168000D66EF294E55200EE1FF00C0EE80403E370
:10169000E5CFEDFFFBD700EE13F0140EE80403E3F3
:1016A000E5CFEDFFFBD7E5CFFAFFE5CFF4FFE5CFC0
:1016B000F3FFE5CFF5FFE5CFF7FFE5CFF6FFE5CF89
:1016C000EAFFE5CFE9FFE5CFDAFF1100090E0001DF
:1016D0008D5D01E0A9D08D6B8E51EA6A9A0FE96E9B
:1016E000000EEA22C4CFEFFF8E2B040E8E5D01E0C8
:1016F00099D0846B00019A51FC0BE842E84200014A
:10170000842700019B51FC0BE842E842000184273A
:1017100000019C51FC0BE842E842000184270001D3
:101720009D51FC0BE842E8420001842784C007F089
:101730002BEC06F005C01CF006C01DF007C01EF023
:1017400008C01FF0CD0E0A6ECC0E0B6E4C0E0C6E48
:10175000400E0D6EA4EC06F005C018F006C019F09E
:1017600007C01AF008C01BF00A6A0B6AA00E0C6EC4
:10177000400E0D6EA4EC06F005C014F006C015F086
:1017800007C016F008C017F00A6AC00E0B6E7F0E75
:101790000C6E440E0D6E51EC06F005C085F006C0CF
:1017A00086F007C087F008C088F0A8EC07F006C0F4
:1017B00089F007C08AF03EEC06F005C018F006C0BC
:1017C00019F007C01AF008C01BF005C00AF006C0E7
:1017D0000BF007C00CF008C00DF085C005F086C006
:1017E00006F087C007F088C008F011EC07F005C0CC
:1017F00014F006C015F007C016F008C017F00A6A0A
:101800000B6AC80E0C6E420E0D6EA4EC06F0A8EC2E
:1018100007F006C08BF007C08CF0000184519A08D5
:0C18200001E38069C28212008D2B1200CF
:04182C00D9CFE6FF2B
:10183000DACFE6FFE1CFD9FFE2CFDAFF91EC0FF08C
:10184000C580C5A003D0FDD7C5B0FED7A1B63BD09B
:10185000FD0E57D804E0C584C5B4FED71ED0C5BC64
:101860003DD0FC0E4ED804E0C584C5B4FED715D0DB
:10187000C5BC2FD0C582C5A203D0FDD7C5B2FED747
:10188000A1B621D0FD0EDB28E66E52EC0EF0E5523B
:10189000000905E0C584C5B4FED7FD0E23D0C5BC44
:1018A00014D0C586C5B6FED7C58AC588C5A803D0DD
:1018B000FDD7C5B8FED7C584C5A403D0FDD7C5B430
:1018C000FED7A1A612D0F3680ED0C584C5B4FED74A
:1018D00003D0C584C5B4FED7FE0E04D0C584C5B4FC
:1018E000FED7FE0EF36EF46806D0C950146E156A6A
:1018F000F36E15C0F4FFE552E5CFDAFFE7CFD9FF6D
:101900001200DBCFE6FF52EC0EF0E55200091200A8
:10191000948694888AEC08F0510EE66EE10EE66E2D
:1019200055EC09F0E552E552A40EE66E000EE66EA7
:10193000A20EE66EA4EC09F0E552E552E552120063
:10194000B886AC98AC84D00EAF6EB06A948CAB8E77
:101950001200D09EF28EAC8AF28CF288F28A1200CB
:10196000D388D38AD38C1200CA82CA907C0ECB6EE5
:1019700094949492CA84BA86BA84BD86BD84BA9A75
:10198000BA98BD9ABD98929C929EBE6ABB6A12009C
:10199000D59CD59AD596F80ED5140109D56ED58E5D
:1019A0001200C198C19AF00EC1140C09C16EC70E85
:1019B000C0141809C06EF80EC0140109C06EC09E94
:0C19C000C30EC2140809C26EC2801200DF
:0419CC000E0EF66E97
:1019D000000EF76E000EF86E00010900F550956FCD
:1019E0000900F550966F03E1956701D03DD00900DD
:1019F000F550906F0900F550916F0900F550926F06
:101A000009000900F550E96E0900F550EA6E090079
:101A100009000900F550936F0900F550946F090013
:101A20000900F6CF97F0F7CF98F0F8CF99F090C073
:101A3000F6FF91C0F7FF92C0F8FF0001935302E157
:101A4000945307E00900F550EE6E9307F8E294070F
:101A5000F9D797C0F6FF98C0F7FF99C0F8FF0001CB
:0A1A60009507000E965BBFD7120039
:061A6A00D9CFE6FFDACF40
:101A7000E6FFE1CFD9FFE2CFDAFF91EC0FF0C580AE
:101A8000C5A003D0FDD7C5B0FED7A1B62BD0FD0EA3
:101A900032D804E0C584C5B4FED711D0C5BC15D07A
:101AA000FC0E29D804E0C584C5B4FED708D0C5BC57
:101AB00008D0FB0E20D80EE0C584C5B4FED7FD0EBD
:101AC00014D0C584C5B4FED703D0C584C5B4FED731
:101AD000FE0E0BD0C584C5A403D0FDD7C5B4FED778
:101AE000A1A602D0FF0E01D0000EE552E5CFDAFF2D
:101AF000E7CFD9FF1200DBCFE6FF52EC0EF0E55244
:041B000000091200C6
:0C1B0400D9CFE6FFDACFE6FFE1CFD9FF32
:101B1000E2CFDAFFE652E652E652E652D950FB0F28
:101B2000146EFF0EDA20156E14C0DEFFDD6EDECF00
:101B3000E6FFDDCFE6FFFB0EDBCFE6FFFC0EDBCFE3
:101B4000E6FFFD0EDBCFE6FFA2C0E6FFA3C0E6FF87
:101B500030EC00F0146E070EE15C02E2E16AE5523F
:101B6000E16E1450020EF3CFDBFF030EF4CFDBFF68
:101B7000020EDBCF14F0030EDBCF15F014C0F3FF21
:101B800015C0F4FF040EE15C02E2E16AE552E16E89
:0C1B9000E552E5CFDAFFE7CFD9FF1200E5
:041B9C00D9CFE6FFB8
:101BA000DACFE6FFE1CFD9FFE2CFDAFFFB0EDBCFE2
:101BB00014F0FC0EDBCF15F00001800E15141AE1B5
:101BC000FB0EDBCFE9FFFC0EDBCFEAFFEECFF3FF2E
:101BD000EDCFF4FFEE2A000EEF22F3CFE9FFF4CFB2
:101BE000EAFFFD0EDBCFEFFFEF50156AF36E15C075
:101BF000F4FF10D0FB0EDB50FE0806E1FD0EDBCF3C
:101C0000E6FF7AEC0FF005D0FD0EDBCFE6FF03EC2C
:101C100000F0E552E552E5CFDAFFE7CFD9FF120039
:101C2000D9CFE6FFDACFE6FFE1CFD9FFE2CFDAFF87
:101C300091EC0FF0C580C5A003D0FDD7C5B0FED78D
:101C4000A1B61FD027D804E1C584C5B4FED70FD0F4
:101C5000C5AC0FD0C582C5A203D0FDD7C5B2FED793
:101C6000A1B60FD017D8F4E1C584C5B4FED7FD0ED8
:101C70000BD0C584C5A403D0FDD7C5B4FED7A1A69B
:101C800002D0FF0E01D0000EE552E5CFDAFFE7CF1C
:101C9000D9FF1200FD0EDBCFE6FF52EC0EF0E5524D
:041CA000FF08120027
:0C1CA400D9CFE6FFDACFE6FFE1CFD9FF91
:101CB000E2CFDAFFFD0EDB50C96EC6AE02D0FF0EDA
:101CC00024D00F0EC61408080FE00F0EC6140B0820
:101CD0000BE0C6889EA6FED7C750040B03E1C75091
:101CE000010B10E0000E11D00F0EC614080804E01E
:101CF0000F0EC6140B0809E1C7B0FED791EC0FF028
:101D0000C5AC02D0FE0E01D0000EE552E5CFDAFFE1
:061D1000E7CFD9FF12002D
:0A1D160004500902F3CF00F0F4CFEF
:101D200001F00A02F3500126000EF420026E045066
:101D30000B02F3500226000EF420036E04500C0236
:101D4000F350032605500902F3500126F4500222F5
:101D5000000E032205500A02F3500226F45003221B
:101D600005500B02F350032606500902F3500226D9
:101D7000F450032206500A02F350032607500902CA
:061D8000F35003261200DF
:0A1D8600FE0EE3CFE9FFFF0EE3CFEE
:101D9000EAFFF36AF46AEE5203E0F34AF42AFBD74F
:101DA0001200FF0EE3CFF8FFE552FF0EE3CFF7FF7F
:101DB000E552FF0EE3CFF6FFE552E66AE66AE66A11
:101DC0000900F55209E0FD0EE32A05E1FE0EE32AC3
:101DD00002E1FF0EE32AF4D7FD0EE3CF05F0FE0E7D
:0C1DE000E3CF06F0FF0EE3CF07F0120087
:041DEC00036A026A1A
:101DF000016A006A200EE76ED89004360536063672
:101E0000073600360136023603360950005C0A50A8
:101E100001580B5002580C50035809E30950005E5A
:101E20000A50015A0B50025A0C50035A042AE72E4A
:041E3000E4D71200E1
:0C1E340056616C65757220626174746503
:101E40007269653A2025642E256420562C20496E3F
:101E5000697469616C69736174696F6E2066696E1B
:101E600069653A2025642C2050686173653A2564C1
:031E70000D0A0058
:0C1E7400F36AF46AFF0EE124E96EFF0E31
:101E8000E220EA6EED6607D02F0EEF6404D03A0E22
:081E9000EF6001D0F32A1200FB
:081E9800B0EC0CF0B4EC0CF00E
:101EA000D1EC0CF0C8EC0CF088EC0CF0A9EC0CF0C8
:081EB000A0EC0CF0C282FFD788
:081EB800000EF36E00EE00F0D5
:101EC000060E01D81200EA6002D0EE6AFCD7F35089
:081ED000E9601200EE6AFCD784
:081ED80015EE00F025EE00F00C
:101EE000F86A0F9CE6EC0CF098EC0FF04CEC0FF05D
:041EF000FBD712000A
:0C1EF400FF0EE350ACBA04D0AF6AAB8E16
:101F0000AC8A949CACA2FED7AD6EF36EF46A12005C
:101F1000303132333435363738396162636465665F
:011F200000C0
:0E1F22001F0EC514FDE1C750040BFAE11200BA
:021F300012009D
:021F3200FEFFB0
:0C1F3400000100000C0000000000000094
:041F4000000000009D
:021F440031006A
:020000040030CA
:0100010008F6
:010003001EDE
:010005008179
:0100060001F8
:00000001FF
