:020000040000FA
:060000009CEF08F0120065
:020006001200E6
:060008005BEF02F01200A4
:02000E000200EE
:10001000A0110000D00000000200000062110000EA
:08002000800000003E0000001A
:08002800019E08D0019E09AE03
:1000300005D0086C091EE86A0922018E09C003F088
:1000400008C002F0136A126A8E0E046E056AF1EFA0
:1000500001F0016A2DEC02F045EC02F001B6D5EF9B
:1000600001F001A205D001BAD5EF01F0DCEF01F0FB
:1000700001BAE8EF01F001A005D001B8D5EF01F019
:10008000E8EF01F001B8DCEF01F0056A7F0E0A2409
:10009000046EE86A05220F50045EE86A055A1A0EDB
:1000A000106E0A6A126A136A026A036A0C50075ECB
:1000B0000D50085A0E50095A000E0A5A09E70C5002
:1000C00007260D5008220E500922000E0A2201D0E8
:1000D000128AD8900736083609360A36D890123672
:1000E000133602360336102EE1D7095008100710D8
:1000F000D8A4128AF1EF01F0016A2DEC02F045EC70
:1001000002F001B6D5EF01F001A205D001B8D5EF9C
:1001100001F0DCEF01F001AA05D001B0D5EF01F04C
:10012000DCEF01F001B002D001A802D0E8EF01F04D
:10013000056A0F500A24046EE86A05227E0E045EEA
:10014000E86A055A126A136A026A036A0E500902C3
:10015000F4CF03F0F3CF02F00D500902F350132651
:10016000F4500222000E03220E500802F350132610
:10017000F4500222000E03220C500902F350122602
:10018000F4501322000E022203220D500802F350F5
:100190001226F4501322000E022203220E500702F0
:1001A000F3501226F4501322000E022203220C50A8
:1001B0000802F4501226000E1322022203220D50D0
:1001C0000702F4501226000E132202220322F1EF3E
:1001D00001F00F7E016A2DEC02F045EC02F001B651
:1001E000D5EF01F001A20AD001AA03D001BED5EFDC
:1001F00001F001A4E1EF01F0DEEF01F001AA05D06A
:1002000001ACE1EF01F0DEEF01F001A00AD001A89E
:1002100008D001BE04D001A402D0EAEF01F0EEEF55
:1002200001F0126A056A0F500A5C116E10E307C0F4
:1002300013F008C002F009C003F00AC010F00CC0AF
:1002400007F00DC008F00EC009F0013A09D00CC04B
:1002500013F00DC002F00EC003F00FC010F0116CCF
:10026000019E01BC018E10C004F001B01DEF02F030
:100270001A0E11601DEF02F0046A0A6A01A408D088
:10028000076C081E091E0A1EE86A082209220A22B3
:1002900001AC08D0136C021E031E041EE86A022281
:1002A00003220422066A115207E00A340932083296
:1002B00007320632112EF9D70750132608500222B2
:1002C000095003220A50042206C012F0019E04AE17
:1002D0000BD0126C131E021E031E041EE86A1322AA
:1002E000022203220422018E04A006D0D880033209
:1002F000023213321232102A10C004F0F1EF01F072
:10030000006A0EAE89EF01F00D6C0E1EE86A0E2237
:10031000001E09AE91EF01F0086C091EE86A09227F
:10032000001E76EC08F009BEA1EF01F000AE000C53
:10033000086C091EE86A0922046C051EE86A052299
:10034000000C00BE98EF01F00188FF0C016A2DEC53
:1003500002F001B6B0EF01F001A20ED001B405D059
:100360007F0E096EFF0E086E1FD0800E096E086AA0
:100370001BD0096A086A18D001B0FBD78F0E0A603B
:10038000EDD77E0E0A64F5D78E0E0A5C05E0D89094
:10039000093208320A2AF8D701A406D0086C091ECF
:1003A000E86A092209AEE5D712007F0E0A6EFF0E39
:1003B000096E086E076E12007F0E01BEFF0E0A6EF8
:1003C00002D07F0E0A6E800E096E086A076AF3D7A4
:1003D00001AE04D0800E0A6E096AF7D70A6A096A6C
:1003E000F4D70350021013101210F8E005BEF0D736
:1003F00003BE0CD004500510EBE0D8901236133633
:10040000023603360406D8A00506F2D70550D4E11B
:100410000428D2E012AE11D07F0E121402E113A014
:100420000CD0132AE86A0222032207E3D8800332A1
:1004300002321332042A0428BFE00450C9E013C07A
:1004400007F002C008F00334096E04300A6E093266
:100450000A9E01BE0A8EDBEF01F009360A3602E37E
:100460000184017E06E101800A6A096A086A076A56
:1004700012000A2803E0D88009321200D89009320D
:1004800002E101821200018612000E360F3602E3ED
:10049000018C017E06E101880F6A0E6A0D6A0C6A02
:1004A00012000F2803E0D8800E321200D8900E32CE
:0604B000EAE1018A1200DE
:0A04B600DACFE4FFE2CFDAFFE9CF6E
:1004C000E4FFEACFE4FFF6CFE4FFF7CFE4FFF5CF98
:1004D000E4FFF3CFE4FFF4CFE4FFFACFE4FF00EE54
:1004E00000F0140EE80403E3EECFE4FFFBD700EEC8
:1004F00020F0020EE80403E3EECFE4FFFBD7E65260
:10050000F2A22CD0CD0EE66E000EE66EA20EE66EC6
:10051000EBEC05F0E552E552E552330E0001CE5DFD
:100520001BE1960E000183AF02D0D89003D0825D0C
:10053000000E835911E3FF0E805D0EE0010E806F07
:100540003A0EBE6E320EBB6E809C809EFD0E8E15E6
:100550008E6F040E8E118E6FF292B0D1F2A4AED1D6
:10056000090E0001BB5D01E0C5D0BB6BBC51EA6A5E
:10057000C80FE96E000EEA22C4CFEFFFBC2B040EB9
:10058000BC5D01E0B5D0846B856B0001C851146E71
:10059000156A145000018427155085230001C951A4
:1005A000146E156A1450000184271550852300012C
:1005B000CA51146E156A1450000184271550852302
:1005C0000001CB51146E156A145000018427155098
:1005D0008523040E0D6E0E6A84C008F085C009F0F4
:1005E00080EC01F008C084F009C085F016EC00F042
:1005F00007C01CF008C01DF009C01EF00AC01FF0A3
:100600000C6A0D6AA00E0E6E400E0F6E7CEC00F0B0
:1006100007C018F008C019F009C01AF00AC01BF092
:100620000C6A0D6A7F0E0E6E430E0F6E29EC00F001
:1006300007C014F008C015F009C016F00AC017F082
:10064000330E0C6E0D6E530E0E6E400E0F6E7CEC64
:1006500000F007C086F008C087F009C088F00AC023
:1006600089F0A6EC01F008C08AF009C08BF016EC06
:1006700000F007C018F008C019F009C01AF00AC04D
:100680001BF007C00CF008C00DF009C00EF00AC046
:100690000FF086C007F087C008F088C009F089C055
:1006A0000AF0E9EC00F007C014F008C015F009C02A
:1006B00016F00AC017F00C6A0D6AC80E0E6E420ED4
:1006C0000F6E7CEC00F0A6EC01F008C08CF009C0C5
:1006D0008DF00001853504E284516608000E8555D1
:1006E00006E3818ABE6ABB6A8069210E8E6FBC6B8D
:1006F000C28201D0BB2B140EBD5D72E1BD6BBA6B23
:10070000815106E04E0E9A6F4F0E9B6F4E0E05D034
:100710004F0E9A6F550E9B6F490E9C6F8AC014F056
:100720008BC015F00A0E0D6E0E6A8AC008F08BC0E1
:1007300009F080EC01F0300E08240001A66F8AC099
:1007400014F08BC015F00A0E0D6E0E6A8AC008F008
:100750008BC009F080EC01F0300E04240001A76F7B
:100760008CC014F08DC015F00A0E0D6E0E6A8CC090
:1007700008F08DC009F080EC01F0300E0824000173
:10078000A96F8CC014F08DC015F00A0E0D6E0E6AA4
:100790008CC008F08DC009F080EC01F004C014F0AA
:1007A00005C015F0300E04240001AA6FFF0E805D15
:1007B00002E1210E02D0300E8025B56FBA51EA6AEF
:1007C0008F0FE96E000EEA22EF50AD6EB951D8805E
:1007D000BA5507E39EA8FED79E980001BA2BEED724
:1007E000BD2B8E1DE66E400EE66E41EC06F0E55226
:1007F000E552020EE66EE00EE66EADEC04F0E55258
:10080000E552F3CF82F0F4CF83F0510EE66EE00EA6
:10081000E66E4DEC05F0E552E5520001800519E168
:10082000280E83AF02D0D89003D0825D000E83598A
:1008300010E2020E806F7B0E8E158E6F480E8E11A9
:100840008E6F0001CC6B280EBE6EBB6E809C808EBE
:1008500030D0020E805D18E1090E0001CC5D12E17E
:100860000001030E806F370E8E158E6F100E8E11E5
:100870008E6F0001CC6B3A0EBE6E320EBB6E809C4A
:10088000809E17D0CC2B15D0030E805D12E11F0E79
:100890000001CC5D0DE1BE6ABB6A0001806B809CEB
:1008A000809E2F0E8E158E6F020E8E118E6F01D0D0
:1008B000CC2B3C0ED76EAF0ED66EF294E55200EE06
:1008C00021F0020EE80403E3E5CFEDFFFBD700EED5
:1008D00013F0140EE80403E3E5CFEDFFFBD7E5CFFB
:1008E000FAFFE5CFF4FFE5CFF3FFE5CFF5FFE5CF66
:1008F000F7FFE5CFF6FFE5CFEAFFE5CFE9FFE5CF6C
:04090000DAFF110009
:0C090400800EC76E280EC66EC56A130E6A
:10091000C86E1200D9CFE6FFE1CFD9FF1F0EC51474
:10092000FDE1C750040BFAE1C580C5B0FED7FE0E4D
:10093000DB50C96EC7B0FED7C5BCFED71F0EC514AD
:10094000FDE1C750040BFAE1C584C5B4FED79E96FD
:10095000000EE552E7CFD9FF1200D9CFE6FFE1CF75
:10096000D9FF060EE126040EDB6A0A0EF36E050EB1
:10097000F3CFDBFFFE0EDBCFE6FFE2EC07F0E55244
:10098000E76E040EE7CFDBFF050EDB06040EDB503F
:100990000EE0050EDBCF20F0000EE76E2018E8AE6B
:1009A00002D0203403D0E750D8802054E3E30A0E6D
:1009B000F36E050EF3CFDBFFFD0EDBCFE6FFFE0E81
:1009C000DBCFE6FF74EC06F0E552E552020EF3CF02
:1009D000DBFF030EF4CFDBFF050EDB06030EDB505F
:1009E0000EE0050EDBCF20F0000EE76E2018E8AE1B
:1009F00002D0203403D0E750D8802054DDE3030E2A
:100A0000DB5002E0DF6806D0020EDB50E76E010E1D
:100A1000E7CFDBFF0A0EF36E050EF3CFDBFFFD0E13
:100A2000DB28E66EFE0EDBCFE6FF74EC06F0E55247
:100A3000E552020EF3CFDBFF030EF4CFDBFF050E12
:100A4000DB06030EDB500EE0050EDBCF20F0000EC0
:100A5000E76E2018E8AE02D0203403D0E750D880EB
:100A60002054DDE3030EDB5003E0010EDB6803D00E
:100A7000020EDB50DF6EDECF20F0DDCF21F020C094
:100A8000F3FF21C0F4FF060EE15C02E2E16AE552E9
:100A9000E16EE552E7CFD9FF1200D9CFE6FFE1CFF3
:100AA000D9FF020EE126DF6ADE520A0EDD6EFE0E6F
:100AB000DBCFE6FFE2EC07F0E552DF6E010EDB066E
:100AC000DF500EE0010EDBCF20F0000EE76E2018A5
:100AD000E8AE02D0203403D0E750D8802054E7E3BA
:100AE000DE520A0EDD6EFD0EDBCFE6FFE66AFE0E7D
:100AF000DBCFE6FF95EC07F0E552E552E552DF6EFD
:100B0000010EDB06DF500EE0010EDBCF20F0000E01
:100B1000E76E2018E8AE02D0203403D0E750D8802A
:100B20002054E1E3020EE15C02E2E16AE552E16E8B
:100B3000E552E7CFD9FF1200D9CFE6FFE1CFD9FFC9
:100B4000E652DF6A1F0EC514FDE1C750040BFAE13F
:100B5000C580C5B0FED7FE0EDB50C96EC7B0FED74C
:100B6000C5BCFED71F0EC514FDE1C750040BFAE14A
:100B7000DFCF20F0216A20BE2168FC0EDB5020244C
:100B8000E96EFD0EDB502120EA6EEF50C96EC7B052
:100B9000FED7C5BCFED7DF50DF2A206E216A20BEFB
:100BA0002168FC0EDB502024E96EFD0EDB50212075
:100BB000EA6EEF50D7E11F0EC514FDE1C750040BDC
:100BC000FAE1C584C5B4FED79E96000EE552E55203
:100BD000E7CFD9FF1200D9CFE6FFE1CFD9FFE65228
:100BE000DF6A1F0EC514FDE1C750040BFAE1C58092
:100BF000C5B0FED7FE0EDB28C96EC7B0FED7C5BC98
:100C0000FED71F0EC514FDE1C750040BFAE1C586DF
:100C1000C7A0FED7DFCF20F0216A20BE2168FC0EDE
:100C2000DB502024E96EFD0EDB502120EA6EC9CF97
:100C3000EFFFC95002E0C59A01D0C58AC588C5B882
:100C4000FED7DF50DF2A206E216A20BE2168FC0E0D
:100C5000DB502024E96EFD0EDB502120EA6EEF50C0
:100C6000D0E11F0EC514FDE1C750040BFAE1C584A5
:100C7000C5B4FED79E96000EE552E552E7CFD9FFE8
:100C80001200D9CFE6FFE1CFD9FFE652DF6A1F0E8F
:100C9000C514FDE1C750040BFAE1C580C5B0FED70D
:100CA000FE0EDB50C96EC7B0FED7C5BCFED71F0E07
:100CB000C514FDE1C750040BFAE1FD0EDB50C96E0F
:100CC000C7B0FED7C5BCFED71F0EC514FDE1C75087
:100CD000040BFAE1C584C5B4FED79E96DF50E552F9
:080CE000E552E7CFD9FF120035
:080CE800D9CFE6FFDACFE6FFE9
:100CF000E1CFD9FFE2CFDAFFAAEC08F0C580C5A0AA
:100D000003D0FDD7C5B0FED7A1B63BD0FD0E57D856
:100D100004E0C584C5B4FED71ED0C5BC3DD0FC0ED2
:100D20004ED804E0C584C5B4FED715D0C5BC2FD0BD
:100D3000C582C5A203D0FDD7C5B2FED7A1B621D0CA
:100D4000FD0EDB28E66E24EC08F0E552000905E014
:100D5000C584C5B4FED7FD0E23D0C5BC14D0C5864E
:100D6000C5B6FED7C58AC588C5A803D0FDD7C5B806
:100D7000FED7C584C5A403D0FDD7C5B4FED7A1A6B0
:100D800012D0F3680ED0C584C5B4FED703D0C58495
:100D9000C5B4FED7FE0E04D0C584C5B4FED7FE0E82
:100DA000F36EF46806D0C950206E216AF36E21C03C
:100DB000F4FFE552E5CFDAFFE7CFD9FF1200DBCF32
:0C0DC000E6FF24EC08F0E55200091200E8
:040DCC0094869488ED
:100DD00082EC04F0510EE66EE00EE66E4DEC05F08E
:100DE000E552E552D00EE66E000EE66EA20EE66EFD
:100DF0009CEC05F0E552E552E5521200B886AC983D
:100E0000AC84D00EAF6EB06A948CAB8EAC8A1200FC
:100E1000D09EF28EF28CF288F28A1200D388D38AA6
:100E2000D38CD38E1200CA82CA907C0ECB6E94945F
:100E30009492CA84BA86BA84BD86BD84BA9ABA9896
:100E4000BD9ABD98929C929EBE6ABB6A1200D59CC8
:100E5000D59AD596F80ED5140109D56ED58E120007
:100E6000C198C19AF00EC1140C09C16EC70EC0140E
:100E70001809C06EF80EC0140109C06EC09EC30EE2
:0C0E8000C2140809C26EC280C2821200B7
:040E8C000E0EF66EE2
:100E9000000EF76E000EF86E00010900F550C36FEA
:100EA0000900F550C46F03E1C36701D03DD00900CC
:100EB000F550BE6F0900F550BF6F0900F550C06FC7
:100EC00009000900F550E96E0900F550EA6E0900C5
:100ED00009000900F550C16F0900F550C26F090003
:100EE0000900F6CFC5F0F7CFC6F0F8CFC7F0BEC007
:100EF000F6FFBFC0F7FFC0C0F8FF0001C15302E119
:100F0000C25307E00900F550EE6EC107F8E2C207D0
:100F1000F9D7C5C0F6FFC6C0F7FFC7C0F8FF00018C
:0A0F2000C307000EC45BBFD7120028
:060F2A00D9CFE6FFDACF8B
:100F3000E6FFE1CFD9FFE2CFDAFFAAEC08F0C580E7
:100F4000C5A003D0FDD7C5B0FED7A1B62BD0FD0EEE
:100F500032D804E0C584C5B4FED711D0C5BC15D0C5
:100F6000FC0E29D804E0C584C5B4FED708D0C5BCA2
:100F700008D0FB0E20D80EE0C584C5B4FED7FD0E08
:100F800014D0C584C5B4FED703D0C584C5B4FED77C
:100F9000FE0E0BD0C584C5A403D0FDD7C5B4FED7C3
:100FA000A1A602D0FF0E01D0000EE552E5CFDAFF78
:100FB000E7CFD9FF1200DBCFE6FF24EC08F0E552C3
:040FC0000009120012
:0C0FC400D9CFE6FFDACFE6FFE1CFD9FF7E
:100FD000E2CFDAFFAAEC08F0C580C5A003D0FDD7A8
:100FE000C5B0FED7A1B61FD027D804E1C584C5B4CB
:100FF000FED70FD0C5AC0FD0C582C5A203D0FDD798
:10100000C5B2FED7A1B60FD017D8F4E1C584C5B4D8
:10101000FED7FD0E0BD0C584C5A403D0FDD7C5B443
:10102000FED7A1A602D0FF0E01D0000EE552E5CFFB
:10103000DAFFE7CFD9FF1200FD0EDBCFE6FF24EC8D
:0810400008F0E552FF08120060
:08104800D9CFE6FFDACFE6FF85
:10105000E1CFD9FFE2CFDAFFFD0EDB50C96EC6AE9D
:1010600002D0FF0E24D00F0EC61408080FE00F0E9A
:10107000C6140B080BE0C6889EA6FED7C750040B0B
:1010800003E1C750010B10E0000E11D00F0EC61483
:10109000080804E00F0EC6140B0809E1C7B0FED71C
:1010A000AAEC08F0C5AC02D0FE0E01D0000EE5524D
:0A10B000E5CFDAFFE7CFD9FF120009
:0610BA000EEC07F013EC40
:1010C00007F030EC07F0E6EC06F0FEEC06F027EC5B
:1010D00007F008EC07F00001816B0001806B000154
:0C10E000030E8E6F00000300FED712000C
:0410EC00056A046A23
:1010F000100EE76ED89008360936043605360D50C6
:10110000045C0E50055805E30D50045E0E50055A60
:08111000082AE72EF0D71200B7
:08111800000EF36E00EE00F082
:10112000060E01D81200EA6002D0EE6AFCD7F35036
:08113000E9601200EE6AFCD731
:0811380015EE00F025EE00F0B9
:10114000F86A019C46EC07F003EC00F05DEC08F057
:04115000FBD71200B7
:0C1154001F0EC514FDE1C750040BFAE1AA
:0211600012007B
:0E116200000100000C00000000000000000072
:1011700000494E49542046494E493A205858582C67
:101180002056424154203A2058582E58582C20704E
:1011900068617365203D20580D0A0028000000009A
:0211A00031001C
:020000040030CA
:0100010008F6
:010003001EDE
:010005008179
:0100060001F8
:00000001FF
