:020000040000FA
:06000000D3EF08F012002E
:020006001200E6
:0600080014EF00F01200ED
:02000E000200EE
:100010000F120000D100000002000000D01100000B
:08002000800000003F00000019
:08002800DACFE4FFE2CFDAFFBA
:10003000E9CFE4FFEACFE4FFF6CFE4FFF7CFE4FF38
:10004000F8CFE4FFF5CFE4FFF3CFE4FFF4CFE4FF14
:10005000FACFE4FFFBCFE4FF00EE00F0140EE8045B
:1000600003E3EECFE4FFFBD700EE20F0020EE8043E
:1000700003E3EECFE4FFFBD7E652F2A24AD0CE0E66
:10008000E66E000EE66EA20EE66E22EC06F0E5527B
:10009000E552E552330E0001CF5D1DE1960E0001E1
:1000A00083AF02D0D89003D0825D000E835913E352
:1000B000805111E1010E806F3C0EBE6E320EBB6EA0
:1000C000809C809EFD0E8E158E6F040E8E118E6F9D
:1000D000050EBD6F1DD0330E0001CF5D19E1000E7E
:1000E0000001E76E8019E8AE02D0803503D0E750FA
:1000F000D88080550DE2BD510BE1BE6ABB6A806BB2
:10010000809C809E210E8E158E6F020E8E118E6F3A
:10011000F292F2A4BFD1000E0001E76EBD19E8AE65
:1001200002D0BD3503D0E750D880BD5501E2BD07F0
:10013000090EBB5D01E0C5D0BB6BBC51EA6AC90FBB
:10014000E96E000EEA22C4CFEFFFBC2B040EBC5DAB
:1001500001E0B5D0846B856B0001C951146E156A3E
:10016000145000018427155085230001CA51146ED4
:10017000156A145000018427155085230001CB51C6
:10018000146E156A14500001842715508523000150
:10019000CC51146E156A1450000184271550852324
:1001A000040E0D6E0E6A84C008F085C009F0DEEC06
:1001B00003F008C084F009C085F074EC02F007C0B9
:1001C0001CF008C01DF009C01EF00AC01FF00C6A28
:1001D0000D6AA00E0E6E400E0F6EDAEC02F007C034
:1001E00018F008C019F009C01AF00AC01BF00C6A18
:1001F0000D6A7F0E0E6E430E0F6E87EC02F007C085
:1002000014F008C015F009C016F00AC017F0330E3C
:100210000C6E0D6E530E0E6E400E0F6EDAEC02F089
:1002200007C086F008C087F009C088F00AC089F0CE
:1002300004EC04F008C08AF009C08BF074EC02F002
:1002400007C018F008C019F009C01AF00AC01BF066
:1002500007C00CF008C00DF009C00EF00AC00FF086
:1002600086C007F087C008F088C009F089C00AF08E
:1002700047EC03F007C014F008C015F009C016F0F1
:100280000AC017F00C6A0D6AC80E0E6E420E0F6E91
:10029000DAEC02F004EC04F008C08CF009C08DF038
:1002A0000001853504E284516608000E855506E399
:1002B000818ABE6ABB6A8069210E8E6FBC6BC28266
:1002C00001D0BB2B140EBE5D72E1BE6BBA6B8151C7
:1002D00006E04E0E9A6F4F0E9B6F4E0E05D04F0EDE
:1002E0009A6F550E9B6F490E9C6F8AC014F08BC09D
:1002F00015F00A0E0D6E0E6A8AC008F08BC009F068
:10030000DEEC03F0300E08240001A66F8AC014F062
:100310008BC015F00A0E0D6E0E6A8AC008F08BC0F5
:1003200009F0DEEC03F0300E04240001A76F8CC04E
:1003300014F08DC015F00A0E0D6E0E6A8CC008F018
:100340008DC009F0DEEC03F0300E08240001A96F27
:100350008CC014F08DC015F00A0E0D6E0E6A8CC0A4
:1003600008F08DC009F0DEEC03F004C014F005C005
:1003700015F0300E04240001AA6FFF0E805D02E12B
:10038000210E02D0300E8025B56FBA51EA6A8F0F68
:10039000E96E000EEA22EF50AD6EB951D880BA5521
:1003A00007E39EA8FED79E980001BA2BEED7BE2B7E
:1003B0008E1DE66E400EE66E78EC06F0E552E552D4
:1003C0000001805102E0800514E1020EE66EE00EAD
:1003D000E66EE4EC04F0E552E552F3CF82F0F4CFA0
:1003E00083F0510EE66EE00EE66E84EC05F0E55209
:1003F000E5520001800519E1280E83AF02D0D890A4
:1004000003D0825D000E835910E2020E806F7B0ED6
:100410008E158E6F480E8E118E6F0001CD6B280EDB
:10042000BE6EBB6E809C808E30D0020E805D18E167
:100430000A0E0001CD5D12E10001030E806F370E40
:100440008E158E6F100E8E118E6F0001CD6B3C0ECF
:10045000BE6E320EBB6E809C809E17D0CD2B15D009
:10046000030E805D12E11F0E0001CD5D0DE1BE6A3D
:10047000BB6A0001806B809C809E2F0E8E158E6F54
:10048000020E8E118E6F01D0CD2B3C0ED76EAF0EAB
:10049000D66EF294E55200EE21F0020EE80403E37A
:1004A000E5CFEDFFFBD700EE13F0140EE80403E3F5
:1004B000E5CFEDFFFBD7E5CFFBFFE5CFFAFFE5CFBB
:1004C000F4FFE5CFF3FFE5CFF5FFE5CFF8FFE5CF8C
:1004D000F7FFE5CFF6FFE5CFEAFFE5CFE9FFE5CF90
:0404E000DAFF11002E
:0C04E400019E08D0019E09AE05D0086CF6
:1004F000091EE86A0922018E09C003F008C002F053
:10050000136A126A8E0E046E056A4FEF04F0016AD8
:100510008BEC04F0A3EC04F001B633EF04F001A27D
:1005200005D001BA33EF04F03AEF04F001BA46EF18
:1005300004F001A005D001B833EF04F046EF04F059
:1005400001B83AEF04F0056A7F0E0A24046EE86AE7
:1005500005220F50045EE86A055A1A0E106E0A6AE8
:10056000126A136A026A036A0C50075E0D50085A39
:100570000E50095A000E0A5A09E70C5007260D5072
:1005800008220E500922000E0A2201D0128AD890A9
:100590000736083609360A36D89012361336023630
:1005A0000336102EE1D7095008100710D8A4128A7C
:1005B0004FEF04F0016A8BEC04F0A3EC04F001B6F9
:1005C00033EF04F001A205D001B833EF04F03AEFA5
:1005D00004F001AA05D001B033EF04F03AEF04F0C3
:1005E00001B002D001A802D046EF04F0056A0F5016
:1005F0000A24046EE86A05227E0E045EE86A055A43
:10060000126A136A026A036A0E500902F4CF03F0F9
:10061000F3CF02F00D500902F3501326F4500222DA
:10062000000E03220E500802F3501326F45002224B
:10063000000E03220C500902F3501226F45013222C
:10064000000E022203220D500802F3501226F4502D
:100650001322000E022203220E500702F35012262C
:10066000F4501322000E022203220C500802F45010
:100670001226000E1322022203220D500702F4500C
:100680001226000E1322022203224FEF04F00F7EE7
:10069000016A8BEC04F0A3EC04F001B633EF04F034
:1006A00001A20AD001AA03D001BE33EF04F001A4D5
:1006B0003FEF04F03CEF04F001AA05D001AC3FEF9E
:1006C00004F03CEF04F001A00AD001A808D001BE5C
:1006D00004D001A402D048EF04F04CEF04F0126AF9
:1006E000056A0F500A5C116E10E307C013F008C0D2
:1006F00002F009C003F00AC010F00CC007F00DC0F2
:1007000008F00EC009F0013A09D00CC013F00DC07A
:1007100002F00EC003F00FC010F0116C019E01BC7E
:10072000018E10C004F001B07BEF04F01A0E1160CE
:100730007BEF04F0046A0A6A01A408D0076C081E63
:10074000091E0A1EE86A082209220A2201AC08D002
:10075000136C021E031E041EE86A022203220422F6
:10076000066A115207E00A340932083207320632AB
:10077000112EF9D7075013260850022209500322E0
:100780000A50042206C012F0019E04AE0BD0126C77
:10079000131E021E031E041EE86A132202220322F5
:1007A0000422018E04A006D0D88003320232133214
:1007B0001232102A10C004F04FEF04F0006A0EAE9F
:1007C000E7EF03F00D6C0E1EE86A0E22001E09AE64
:1007D000EFEF03F0086C091EE86A0922001EADEC79
:1007E00008F009BEFFEF03F000AE000C086C091E14
:1007F000E86A0922046C051EE86A0522000C00BEA6
:10080000F6EF03F00188FF0C016A8BEC04F001B6EF
:100810000EEF04F001A20ED001B405D07F0E096ED8
:10082000FF0E086E1FD0800E096E086A1BD0096A81
:10083000086A18D001B0FBD78F0E0A60EDD77E0E84
:100840000A64F5D78E0E0A5C05E0D89009320832AA
:100850000A2AF8D701A406D0086C091EE86A092202
:1008600009AEE5D712007F0E0A6EFF0E096E086E04
:10087000076E12007F0E01BEFF0E0A6E02D07F0EC1
:100880000A6E800E096E086A076AF3D701AE04D0BB
:10089000800E0A6E096AF7D70A6A096AF4D703500C
:1008A000021013101210F8E005BEF0D703BE0CD0F2
:1008B00004500510EBE0D89012361336023603369A
:1008C0000406D8A00506F2D70550D4E10428D2E0EA
:1008D00012AE11D07F0E121402E113A00CD0132A15
:1008E000E86A0222032207E3D8800332023213327D
:1008F000042A0428BFE00450C9E013C007F002C076
:1009000008F00334096E04300A6E09320A9E01BEF3
:100910000A8E39EF04F009360A3602E30184017EBB
:1009200006E101800A6A096A086A076A12000A2851
:1009300003E0D88009321200D890093202E1018226
:100940001200018612000E360F3602E3018C017E82
:1009500006E101880F6A0E6A0D6A0C6A12000F2800
:1009600003E0D8800E321200D8900E32EAE1018AFC
:02097000120073
:0E097200800EC76E280EC66EC56A130EC86EC4
:100980001200D9CFE6FFE1CFD9FF1F0EC514FDE15C
:10099000C750040BFAE1C580C5B0FED7FE0EDB5090
:1009A000C96EC7B0FED7C5BCFED71F0EC514FDE18A
:1009B000C750040BFAE1C584C5B4FED79E96000E5D
:1009C000E552E7CFD9FF1200D9CFE6FFE1CFD9FF3B
:1009D000060EE126040EDB6A0A0EF36E050EF3CF57
:1009E000DBFFFE0EDBCFE6FF19EC08F0E552E76E09
:1009F000040EE7CFDBFF050EDB06040EDB500EE036
:100A0000050EDBCF20F0000EE76E2018E8AE02D016
:100A1000203403D0E750D8802054E3E30A0EF36E6D
:100A2000050EF3CFDBFFFD0EDBCFE6FFFE0EDBCFC7
:100A3000E6FFABEC06F0E552E552020EF3CFDBFF2A
:100A4000030EF4CFDBFF050EDB06030EDB500EE0DA
:100A5000050EDBCF20F0000EE76E2018E8AE02D0C6
:100A6000203403D0E750D8802054DDE3030EDB5060
:100A700002E0DF6806D0020EDB50E76E010EE7CF22
:100A8000DBFF0A0EF36E050EF3CFDBFFFD0EDB2856
:100A9000E66EFE0EDBCFE6FFABEC06F0E552E5526C
:100AA000020EF3CFDBFF030EF4CFDBFF050EDB06F8
:100AB000030EDB500EE0050EDBCF20F0000EE76EDC
:100AC0002018E8AE02D0203403D0E750D88020545C
:100AD000DDE3030EDB5003E0010EDB6803D0020E02
:100AE000DB50DF6EDECF20F0DDCF21F020C0F3FF42
:100AF00021C0F4FF060EE15C02E2E16AE552E16E1C
:100B0000E552E7CFD9FF1200D9CFE6FFE1CFD9FFF9
:100B1000020EE126DF6ADE520A0EDD6EFE0EDBCF2C
:100B2000E6FF19EC08F0E552DF6E010EDB06DF5040
:100B30000EE0010EDBCF20F0000EE76E2018E8AECD
:100B400002D0203403D0E750D8802054E7E3DE52AF
:100B50000A0EDD6EFD0EDBCFE6FFE66AFE0EDBCF92
:100B6000E6FFCCEC07F0E552E552E552DF6E010EF0
:100B7000DB06DF500EE0010EDBCF20F0000EE76E4B
:100B80002018E8AE02D0203403D0E750D88020549B
:100B9000E1E3020EE15C02E2E16AE552E16EE55258
:100BA000E7CFD9FF1200D9CFE6FFE1CFD9FFE65258
:100BB000DF6A1F0EC514FDE1C750040BFAE1C580C2
:100BC000C5B0FED7FE0EDB50C96EC7B0FED7C5BCA0
:100BD000FED71F0EC514FDE1C750040BFAE1DFCFAD
:100BE00020F0216A20BE2168FC0EDB502024E96E33
:100BF000FD0EDB502120EA6EEF50C96EC7B0FED764
:100C0000C5BCFED7DF50DF2A206E216A20BE2168D6
:100C1000FC0EDB502024E96EFD0EDB502120EA6E35
:100C2000EF50D7E11F0EC514FDE1C750040BFAE1E8
:100C3000C584C5B4FED79E96000EE552E552E7CFB7
:100C4000D9FF1200D9CFE6FFE1CFD9FFE652DF6A24
:100C50001F0EC514FDE1C750040BFAE1C580C5B0F5
:100C6000FED7FE0EDB28C96EC7B0FED7C5BCFED7C7
:100C70001F0EC514FDE1C750040BFAE1C586C7A0DD
:100C8000FED7DFCF20F0216A20BE2168FC0EDB50AA
:100C90002024E96EFD0EDB502120EA6EC9CFEFFF64
:100CA000C95002E0C59A01D0C58AC588C5B8FED72B
:100CB000DF50DF2A206E216A20BE2168FC0EDB5047
:100CC0002024E96EFD0EDB502120EA6EEF50D0E1CA
:100CD0001F0EC514FDE1C750040BFAE1C584C5B46D
:100CE000FED79E96000EE552E552E7CFD9FF1200DF
:100CF000D9CFE6FFE1CFD9FFE652DF6A1F0EC51458
:100D0000FDE1C750040BFAE1C580C5B0FED7FE0E69
:100D1000DB50C96EC7B0FED7C5BCFED71F0EC514C9
:100D2000FDE1C750040BFAE1FD0EDB50C96EC7B000
:100D3000FED7C5BCFED71F0EC514FDE1C750040B7E
:100D4000FAE1C584C5B4FED79E96DF50E552E55260
:060D5000E7CFD9FF1200FD
:0A0D5600D9CFE6FFDACFE6FFE1CFC8
:100D6000D9FFE2CFDAFFE1EC08F0C580C5A003D0DF
:100D7000FDD7C5B0FED7A1B63BD0FD0E57D804E0D5
:100D8000C584C5B4FED71ED0C5BC3DD0FC0E4ED820
:100D900004E0C584C5B4FED715D0C5BC2FD0C5822C
:100DA000C5A203D0FDD7C5B2FED7A1B621D0FD0E96
:100DB000DB28E66E5BEC08F0E552000905E0C5842F
:100DC000C5B4FED7FD0E23D0C5BC14D0C586C5B6AC
:100DD000FED7C58AC588C5A803D0FDD7C5B8FED73C
:100DE000C584C5A403D0FDD7C5B4FED7A1A612D033
:100DF000F3680ED0C584C5B4FED703D0C584C5B48E
:100E0000FED7FE0E04D0C584C5B4FED7FE0EF36E29
:100E1000F46806D0C950206E216AF36E21C0F4FF39
:100E2000E552E5CFDAFFE7CFD9FF1200DBCFE6FFCF
:0A0E30005BEC08F0E5520009120027
:060E3A0094869488B9ECD7
:100E400004F0510EE66EE00EE66E84EC05F0E5521D
:100E5000E552D10EE66E000EE66EA20EE66ED3EC03
:100E600005F0E552E552E5521200B886AC98AC8424
:100E7000D00EAF6EB06A948CAB8EAC8A1200D09E4E
:100E8000F28EF28CF288F28A1200D388D38AD38C45
:100E9000D38E1200CA82CA907C0ECB6E9494949228
:100EA000CA84BA86BA84BD86BD84BA9ABA98BD9AF5
:100EB000BD98929C929EBE6ABB6A1200D59CD59A40
:100EC000D596F80ED5140109D56ED58E1200C198AD
:100ED000C19AF00EC1140C09C16EC70EC0141809D6
:100EE000C06EF80EC0140109C06EC09EC30EC214BD
:0A0EF0000809C26EC280C28212001F
:060EFA000E0EF66E000E64
:100F0000F76E000EF86E00010900F550C46F09007D
:100F1000F550C56F03E1C46701D03DD00900F5501D
:100F2000BF6F0900F550C06F0900F550C16F09008F
:100F30000900F550E96E0900F550EA6E0900090054
:100F40000900F550C26F0900F550C36F0900090090
:100F5000F6CFC6F0F7CFC7F0F8CFC8F0BFC0F6FFA6
:100F6000C0C0F7FFC1C0F8FF0001C25302E1C35384
:100F700007E00900F550EE6EC207F8E2C307F9D7A3
:100F8000C6C0F6FFC7C0F7FFC8C0F8FF0001C4071E
:080F9000000EC55BBFD7120083
:080F9800D9CFE6FFDACFE6FF36
:100FA000E1CFD9FFE2CFDAFFE1EC08F0C580C5A0C0
:100FB00003D0FDD7C5B0FED7A1B62BD0FD0E32D8D9
:100FC00004E0C584C5B4FED711D0C5BC15D0FC0E55
:100FD00029D804E0C584C5B4FED708D0C5BC08D064
:100FE000FB0E20D80EE0C584C5B4FED7FD0E14D08C
:100FF000C584C5B4FED703D0C584C5B4FED7FE0EE4
:101000000BD0C584C5A403D0FDD7C5B4FED7A1A617
:1010100002D0FF0E01D0000EE552E5CFDAFFE7CF98
:10102000D9FF1200DBCFE6FF5BEC08F0E5520009C8
:021030001200AC
:0E103200D9CFE6FFDACFE6FFE1CFD9FFE2CF5C
:10104000DAFFE1EC08F0C580C5A003D0FDD7C5B03C
:10105000FED7A1B61FD027D804E1C584C5B4FED7FA
:101060000FD0C5AC0FD0C582C5A203D0FDD7C5B285
:10107000FED7A1B60FD017D8F4E1C584C5B4FED70A
:10108000FD0E0BD0C584C5A403D0FDD7C5B4FED7D3
:10109000A1A602D0FF0E01D0000EE552E5CFDAFF87
:1010A000E7CFD9FF1200FD0EDBCFE6FF5BEC08F0C7
:0610B000E552FF081200EA
:0A10B600D9CFE6FFDACFE6FFE1CF65
:1010C000D9FFE2CFDAFFFD0EDB50C96EC6AE02D00B
:1010D000FF0E24D00F0EC61408080FE00F0EC61422
:1010E0000B080BE0C6889EA6FED7C750040B03E191
:1010F000C750010B10E0000E11D00F0EC6140808E7
:1011000004E00F0EC6140B0809E1C7B0FED7E1ECEE
:1011100008F0C5AC02D0FE0E01D0000EE552E5CFBE
:08112000DAFFE7CFD9FF12004E
:0811280045EC07F04AEC07F06A
:1011300067EC07F01DEC07F035EC07F05EEC07F00C
:101140003FEC07F00001816B0001806B0001030E92
:0A1150008E6F00000300FED71200AE
:06115A00056A046A100E94
:10116000E76ED89008360936043605360D50045C13
:101170000E50055805E30D50045E0E50055A082A1E
:06118000E72EF0D712007B
:0A118600000EF36E00EE00F0060EFE
:1011900001D81200EA6002D0EE6AFCD7F350E96091
:0611A0001200EE6AFCD70C
:0A11A60015EE00F025EE00F0F86AE7
:1011B000019C7DEC07F003EC00F094EC08F0FBD709
:0211C00012001B
:0E11C2001F0EC514FDE1C750040BFAE1120028
:1011D000000100000C0000000000000000000049B9
:1011E0004E49542046494E493A205858582C2056CA
:1011F000424154203A2058582E58582C207068618B
:0F1200007365203D20580D0A0028000000FF00F4
:01120F0031AD
:0112100000DD
:020000040030CA
:0100010008F6
:010003001EDE
:010005008179
:0100060001F8
:00000001FF
